:020000040800F2
:10000000F09000205D020008AF350008012B0008C9
:10001000AD350008950500085548000800000000AF
:100020000000000000000000000000009D0100082A
:10003000FD06000800000000F9010008A5440008C2
:1000400077020008770200087702000877020008AC
:10005000770200087702000877020008770200089C
:10006000770200087702000877020008770200088C
:10007000770200087702000877020008770200087C
:10008000770200087702000877020008770200086C
:10009000770200087702000877020008FF060008D0
:1000A000770200087702000877020008770200084C
:1000B00075450008770200087702000877020008FB
:1000C000770200087702000877020008C1410008A3
:1000D000770200087702000877020008770200081C
:1000E000770200087702000877020008770200080C
:1000F00077020008770200087702000877020008FC
:1001000077020008E535000877020008770200084A
:1001100077020008770200087702000877020008DB
:100120002906000877020008770200083506000853
:1001300077020008770200087702000877020008BB
:1001400077020008770200087702000877020008AB
:10015000410600084D0600087702000877020008F3
:10016000770200087702000877020008770200088B
:1001700077020008770200087702000800000000FC
:100180007702000877020008DFF80CD000F04CF985
:1001900000480047316B0208F09000202C4B196892
:1001A0000868B0E8F04F80F30988BFF36F8F4FF015
:1001B000000080F3118870470000000008480068C4
:1001C000006880F308884FF0000080F3148862B65E
:1001D00061B6BFF34F8FBFF36F8F00DF00BF00BF6B
:1001E00008ED00E0DFF80C00016841F470010160E7
:1001F000704700BF88ED00E0EFF30980BFF36F8F19
:10020000134B1A681EF0100F08BF20ED108A20E96A
:10021000F04F106009B44FF0500080F31188BFF325
:100220004F8FBFF36F8F2CF0F1FA4FF0000080F387
:10023000118809BC19680868B0E8F04F1EF0100F6B
:1002400008BFB0EC108A80F30988BFF36F8F704746
:1002500074020010EFF305807047000006488047E5
:1002600006480047FEE7FEE7FEE7FEE7FEE7FEE79B
:10027000FEE7FEE7FEE7FEE76545000889010008A6
:100280002DE9F05F0546002092469B4688460646CB
:10029000814640241BE0284641464746224600F05E
:1002A000B3F853465A46C01A914110D31146184626
:1002B000224600F09AF82D1A67EB01084F462246B5
:1002C0000120002100F091F817EB00094E41201E9B
:1002D000A4F10104DFDC484631462A464346BDE826
:1002E000F09F40EA01039B0703D009E008C9121FF1
:1002F00008C0042AFAD203E011F8013B00F8013BE0
:10030000521EF9D27047D2B201E000F8012B491E0B
:10031000FBD270470022F6E710B513460A460446A2
:100320001946FFF7F0FF204610BD421E12F8013FAC
:10033000002BFBD111F8013B02F8013B002BF9D156
:10034000704730B505462A460B4612F8010B13F8E4
:10035000014B08B1A042F8D01CB1002802D06D1C9E
:10036000F1E7284630BD421C10F8011B0029FBD1E3
:10037000801A704710B5002200E0521C835C8C5C30
:10038000A34201D1002BF8D1D8B2E1B2401A10BD7E
:1003900010B5044600E0401C0378002BFBD100E0C0
:1003A000401C521E04D311F8013B0370002BF7D1FF
:1003B00000210170204610BD034611F8012B00F802
:1003C000012B002AF9D1184670470246C9B200E055
:1003D000401C0378002BFBD102E003788B4203D052
:1003E000401E9042F9D200207047202A04DB203AB8
:1003F00000FA02F1002070479140C2F1200320FA78
:1004000003F3194390407047202A04DB203A21FA75
:1004100002F00021704721FA02F3D040C2F120021D
:100420009140084319467047064C074D06E0E068C6
:1004300040F0010394E8070098471034AC42F6D32B
:10044000FFF7A6FEF0CA050820CB050870B58C188A
:1004500010F8015B15F0070301D110F8013B2A11D8
:1004600006D110F8012B03E010F8016B01F8016BC5
:100470005B1EF9D12B0705D40023521E0DD401F8C1
:10048000013BFAE710F8013BCB1A921C03E013F88A
:10049000015B01F8015B521EF9D5A142D8D30020BF
:1004A00070BD40F2DC5420462CF0D6F8FBE700008B
:1004B00010B501242021034800F0F6FB00B1002410
:1004C000204610BD00080240704700000146014868
:1004D00001F06ABBBC07001010B5044801F076FBC0
:1004E000042801D0012010BD002010BDBC07001061
:1004F00010B500F015F8012801D0012010BD074803
:1005000001F07EFC040006D14FF40061034801F0C5
:10051000F1F900B10124204610BD0000BC07001015
:1005200008B501208DF80000FFF7C2FF10B90020C8
:100530008DF800009DF8000008BD0000134610B5BE
:100540000A4601460024034801F056FD00B101248B
:10055000204610BDBC07001002480022012140685F
:1005600027F0C4B818000010134610B50A4601461B
:100570000024034801F0DAFD00B10124204610BD3B
:10058000BC070010024800220221406827F0AEB8E4
:1005900018000010FEE700003EB5002001900EA0FC
:1005A0004FF47A7400680290012302AA2A21009471
:1005B0000A4800F045FD022301AA2B2107480094B8
:1005C00000F046FC9DF804109DF8050001F00F01B5
:1005D00040EA01203EBD0000030000006807001053
:1005E0003EB5002001900EA04FF47A74006802908E
:1005F000012302AA2A2100940A4800F021FD0223C7
:1006000001AA2B210748009400F022FC9DF8041059
:100610009DF8050001F00F0140EA01203EBD0000F9
:100620000500000068070010014800F0A5B80000B0
:1006300058090010014800F09FB800004008001061
:10064000014800F099B80000B8090010014800F016
:1006500093B80000A008001001681823CAB2103A2D
:10066000B2FBF3F2054B6FF30901032A9B5CC365F0
:1006700000D9091D8165084670470000F8D70208B7
:1006800010B5014600208B698A6A4FF0C07453B1DF
:10069000B3F5005F15D072B1012A0CD0022A0AD03E
:1006A000032A09D104E01AB1012A06D0022A03D193
:1006B000C96AC90100D5012010BDC96AA142FAD09A
:1006C00010BD002AF7D0012AF2D0022AF3D0032A63
:1006D000F3D010BD30B50468256825F48025256069
:1006E000046863608368402B036803D099600068E6
:1006F000C26030BD9A600068C16030BD7047202084
:1007000000F0CEB972B6FEE7002200F001B800009A
:1007100030B50E4B054601209C7B022C15D2987BF0
:1007200000241C54987B03EB800045609D7B03F103
:100730000C002A54987B421C9A73303008703A207F
:1007400048702F208870CC70002030BDD80A00106F
:1007500090F83510022903D08021416501207047AF
:10076000052180F835100068016821F00101016061
:1007700000207047406D70472DE9F84304464FF064
:100780000009CDF8009063484FF41651A56D00683C
:10079000B0FBF1F72E6894F85C10082000FA01F124
:1007A00031420FD021680A6852070BD50A6822F03F
:1007B00004020A6094F85C108840A860606D40F004
:1007C0000100606594F85C104FF0010808FA01F030
:1007D000304208D021684969090604D5A860606DD7
:1007E00040F00200606594F85C10042088403042BC
:1007F00008D021680968890704D5A860606D40F0B9
:100800000400606594F85C1010208840304218D0D5
:1008100021680968090714D5A860206801684903A0
:1008200004D50068000308D5A16C07E00168C9057C
:1008300003D4016821F008010160216C09B1204650
:10084000884794F85C1020208840304231D02168DD
:100850000968C9062DD5A86094F8350005282068D8
:10086000016806D0490347D5006800031DD4616CB8
:100870001CE021F0160101602068416921F080012F
:100880004161206C08B9A06C20B12068016821F09A
:100890000801016094F85C103F208840A86084F84B
:1008A000358084F83490216D1FE0E16B09B120465A
:1008B0008847606D00282BD0606DC00714D00520DC
:1008C00084F835002068016821F00101016000987A
:1008D000401C0090B84203D820680068C007F6D1D9
:1008E00084F8358084F83490E16C002910D001B090
:1008F0002046BDE8F04308470168C905D5D4016822
:1009000021F01001016084F8358084F83490CCE740
:10091000BDE8F8834C0000102DE9F041044600F0DA
:10092000CDF906465CB1022084F83500002584F834
:1009300034502068016821F0010101600DE00120C0
:10094000BDE8F08100F0BAF9801B052805D9202008
:100950006065032084F83500F2E720680068C0076E
:10096000F0D12268116820480140D4E901031843FE
:10097000D4E903363343184363691843A369184322
:10098000E3691843236A18430843616A042903D1C1
:10099000D4E90B1319430843106020684069666A64
:1009A00020F0070130460E43012704280CD1A06A2D
:1009B0000643E06A40B12046FFF762FE20B14020C6
:1009C000606584F83570BAE7206846612046FFF715
:1009D00043FE94F85C203F2191408160656584F876
:1009E00035700020ACE700003F8010F02DE9F041A9
:1009F0000446866D90F83400002501280DD00120B2
:100A000084F8340094F835700020012F07D084F862
:100A1000340002252846BDE8F0810220FBE70227CA
:100A200084F8357060652046FFF754FE94F85C103A
:100A30003F208840B0602068016841F016010160E5
:100A4000206C20B12068016841F008010160206835
:100A5000016841F001010160DCE7000070B5044667
:100A600000F02CF90546601C02D0044800780444CC
:100A700000F024F9401BA042FAD370BD40000010E2
:100A8000202807D1044901200022087041020348B0
:100A900000F00FB97047000070020010001402400F
:100AA000044910B50A68024202D00860FFF7E8FF67
:100AB00010BD0000143C01402DE9F84FDFF8BCA147
:100AC0000022012503264FF00F090AF1040BAAF1B9
:100AD000040E00BF0B6805FA02F42340A34270D154
:100AE0000F7907F00307012F01D0022F16D1876875
:100AF0004FEA420806FA08FC27EA0C07D1F80CC0B6
:100B00000CFA08FC4CEA070CC0F808C04768A74379
:100B10000C79C4F3001494403C4344600C79E443E2
:100B2000A4070AD0C4684FEA420C06FA0CF7BC438B
:100B30008F6807FA0CF72743C7600C7904F00304A9
:100B4000022C12D1D40800EB840CDCF820405707AB
:100B5000FF0E09FA07F824EA0804D1F8108008FA11
:100B600007F848EA0408CCF8208004684FEA420CF1
:100B700006FA0CF7BC430F7907F0030707FA0CF7E6
:100B8000274307604C6814F4403F70D03C4C276802
:100B900047F480472760246822F0030704F4804468
:100BA0000094384C07EB040CDCF8084897074FEA30
:100BB000177809FA08F7BC43334FB84202D100272F
:100BC00024E054E0314FB84201D101271EE0304FFC
:100BD000B84201D1022719E02E4FB84201D10327B4
:100BE00014E02D4FB84201D104270FE02B4FB8423B
:100BF00001D105270AE02A4FB84201D1062705E0B6
:100C0000284FB84201D1072700E0082707FA08F764
:100C10002743CCF80878DAF800405746D1F804C0EA
:100C20009C435FEACC2C00D51C433C60DBF80040C1
:100C30005F46D1F804C09C435FEA8C2C00D51C436E
:100C40003C60DEF800407746D1F804C09C435FEA80
:100C50008C3C00D51C433C60084F083F3C68D1F8F1
:100C600004C09C435FEACC3C00D51C433C60521C52
:100C7000102AFFF42FAFBDE8F88F0000083C0140B8
:100C800044380240003001400000024000040240AD
:100C900000080240000C0240001002400014024014
:100CA00000180240001C02400069084000D00120EA
:100CB00070470AB1816170470904FBE70148806809
:100CC000704700004000001070B5040025D094F873
:100CD0003D00002520B984F83C50204600F046FA3B
:100CE000242084F83D002068016821F001010160A2
:100CF0002068016841F4004101602068016821F426
:100D00000041016000F0EAFB4D4A6168914201D860
:100D10004C4900E04C49884201D2012070BD4B494A
:100D20002368B0FBF1F15E6826F03F060E435E607B
:100D30006368934206D94FF4967359434FF47A731C
:100D4000B1FBF3F12368491C1E6A26F03F063143CC
:100D500019626168914210D84900401EB0FBF1F25F
:100D6000521CC2F30B02042A01D2042022E0B0FB81
:100D7000F1F0401CC0F30B001CE0A268F2B301EBE1
:100D8000C10303EB0116431EB3FBF6F35B1C43F4F4
:100D900080431B0549D092B301EBC10202EB011164
:100DA000401EB0FBF1F0401CC0F30B0040F480404B
:100DB00040F400402168CA694CF6FF739A4310431F
:100DC000C861D4E9071001432068026822F0C0021C
:100DD00011430160D4E9030101432068826848F2AD
:100DE000FF339A4311438160D4E905010843216828
:100DF000CA6822F0FF021043C86001E00EE016E06E
:100E00002068016841F0010101602564202084F818
:100E10003D00256384F83E50002070BD01EB410683
:100E2000431EB3FBF6F35B1CB3E70120C2E701EB03
:100E30004101401EB0FBF1F0401CC0F30B00B7E7CE
:100E4000A086010080841E0000093D0040420F0082
:100E50002DE9F84F1F4690468A460446DDF8289053
:100E6000FFF72CFF054694F83D00202871D1192387
:100E7000012270492046009501F0AAFF0028F5D113
:100E800094F83C00012864D0012084F83C002068DC
:100E90000168C90703D1016841F0010101602068C0
:100EA000016821F400610160222084F83D001020D7
:100EB00084F83E0000262664C4F824806785608D8F
:100EC00020855D48E0622B464A465146204601F0A7
:100ED0008FFE002876D1208D584F68B1012814D09C
:100EE00002282068016816D041F480610160206802
:100EF0004169806900908EE02068416981690091B4
:100F0000016841F40071016085E02068016821F406
:100F100080610160F0E721F4806101602068016870
:100F200041F40061E2E7032846D801280AD00228EC
:100F300010D04B46002239462046009501F048FF6C
:100F4000C8BB25E02A464946204601F0E7FF90BB92
:100F500054E06CE04B46002239462046009501F0F3
:100F600037FF40BB2068016841F4007101602068D0
:100F70000069616A0870606A401C6062218D491EC8
:100F80002185618D491E618521680969017039E0FB
:100F90002068016821F48061016020680069616A4D
:100FA0000870606A401C6062208D401E2085608D44
:100FB000401E6085CEE705E02A464946204601F0FE
:100FC000ADFF10B10120BDE8F88F20680069616AAB
:100FD0000870606A401C6062208D401E81B22185CD
:100FE000608D401E608520684269D243520712D44A
:100FF000032903D1016821F4806101602068006940
:10100000616A0870606A401C6062208D401E208505
:10101000608D401E6085208D002884D1202084F8BA
:101020003D0084F83E6084F83C600020CBE702205D
:10103000C9E70000020010000000FFFF04000100EB
:101040002DE9F84F1F4690468A460446DDF8289061
:10105000FFF734FE054694F83D0020287FD1192380
:10106000012240492046009501F0B2FE002876D1C9
:1010700094F83C00012872D0012084F83C002068DC
:101080000168C90703D1016841F0010101602068CE
:10109000016821F400610160212084F83D001020E6
:1010A00084F83E0000262664C4F824806785608D9D
:1010B00020852D48E0622B464A465146204601F0E5
:1010C0000DFE90B9206841698069009036E02A469B
:1010D0004946204601F05AFF50B1206C042804D143
:1010E0002068016841F4007101600120BDE8F88FBB
:1010F000606A216800780861606A401C6062618DE6
:10110000491E6185218D491E89B221852268536956
:10111000DB435B070BD451B100781061606A401C5F
:101120006062608D401E6085208D401E20852A46AD
:101130004946204601F020FE0028CED1208D00280F
:10114000C5D154F83D0B016841F4007101602020C5
:1011500004F81E09E67766770020C7E7FFE702205C
:10116000C4E70000020010000000FFFF10B586B0C9
:10117000044614216846FFF7CDF8134920688842D9
:1011800020D112480021026842F002020260006889
:1011900000F002000590C02000901220CDE901016E
:1011A000032003900420049069460948FFF784FC5B
:1011B00006481030016841F400110160006800F435
:1011C0000010059006B010BD0054004030380240B9
:1011D000000402400248816802781144816070472F
:1011E000400000100B4810B5016841F40071016027
:1011F000016841F480610160016841F4807101601F
:10120000032000F09FF8002000F006F800F050F8EE
:10121000002010BD003C024030B50546204887B094
:101220000024016841F001010160006806A900F096
:101230000100009001A800F031F90498B0B100F06D
:101240004DF9400017494FF08042B0FBF1F11648CC
:10125000491E026040F2E732C0E90324C0E90114EC
:10126000846101F082FA040003D015E000F036F941
:10127000E8E70D4801F0A8FA04000DD11C2000F0A9
:1012800033F8102D07D2002229461C2000F03AF82E
:101290000648056000E0012407B0204630BD00008C
:1012A0004038024040420F00600A00104400001025
:1012B0000C4882B0016841F480410160006800F48C
:1012C000804000900748001F016841F08051016094
:1012D0000068002200F0805000900F21901E02B0A4
:1012E00000F010B844380240002809DB00F01F026B
:1012F000012191404009800000F1E020C0F8001178
:1013000070470000F0B40E4B1B680C46C3F3022379
:10131000C3F10705042D00D90425191D072901D2A1
:10132000002300E0DB1E012606FA05F1491E2140DC
:1013300099409E40761E16403143F0BC03F0B4BA8B
:101340000CED00E0064900F0070208684FF6FF03C5
:10135000184040EA0220034A10430860704700002A
:101360000CED00E00000FA052DE9F0470E460500FF
:1013700065D0DFF81481D8F80000F7B200F007005C
:10138000B04207D288F80070D8F8000000F00700DB
:10139000B04254D128683D4C810712D5400703D58F
:1013A000206840F4E05020602878000703D52068CA
:1013B00040F4604020602068A96820F0F0000843F5
:1013C00020602878C0072DD0304968680839012886
:1013D00012D0022813D0032811D0096889070029E8
:1013E0002DDA216821F0030101432160FFF766FC3B
:1013F000814641F2883A0EE009688903EFE70968FF
:101400008901ECE7FFF75AFCA0EB0901514502D92D
:101410000320BDE8F0872068696800F00C00B0EB9D
:10142000810FEFD1D8F80010404601F00701B1421A
:1014300007D90770006800F00700B04201D0012012
:10144000E7E72878400705D52068E96820F4E050F0
:10145000084320602878000706D52068296920F411
:10146000604040EAC100206000F058F82168084A56
:10147000C1F30311515CC840064908600648006882
:10148000FFF7CAFE0020C4E7003C024008380240D3
:1014900000D802084C000010440000100F22026027
:1014A0000C4A136803F003034360136803F0F0036E
:1014B0008360136803F4E053C36012684FF4E05391
:1014C00003EAD20202610448006800F007000860E5
:1014D0007047000008380240003C024004480549BB
:1014E00000680968044AC1F38221515CC840704712
:1014F0004C0000100838024010D802080448054982
:1015000000680968044AC1F34231515CC840704721
:101510004C0000100838024010D80208154810B5D9
:10152000006810F00C02144813D01449042A0FD09C
:10153000082A0ED10F4C241F2268236802F03F02B4
:101540005B0207D52068C0F38810A0FB010106E00C
:10155000084610BD2168C1F38811A1FB00010023DA
:10156000FEF78EFE2168C1F30141491C4900B0FB22
:10157000F1F010BD083802400024F40040787D01ED
:101580002DE9F84F04006ED02078DFF84C93C007A7
:10159000A9F104054AD009F104000168C1F38101F1
:1015A000012908D00068C0F3810002280AD1D9F8C7
:1015B0000000400206D52868800337D560680028FF
:1015C000E1D033E06068B0F5803F10D0B0F5A02FD7
:1015D000286810D020F480302860286820F480200B
:1015E00028606068A8B1FFF769FB06460DE028682F
:1015F00040F48030F4E740F480202860F7E700BF33
:10160000FFF75CFB801B642873D828688003F7D53C
:101610000CE0FFF753FB064605E000BFFFF74EFB6B
:10162000801B6428F0D828688003F7D42078DFF87E
:10163000AC8280074FF0000A3ED5A748001D016824
:1016400011F00C0F08D00068C0F3810002280BD104
:10165000D9F80000400207D42868800716D5E06852
:10166000012800D112E033E1E068B8B10120C8F8E8
:101670000000FFF723FB064605E000BFFFF71EFB57
:10168000801B0228C0D828688007F7D52868216900
:1016900020F0F80040EAC10028600DE0C8F800A082
:1016A000FFF70CFB064604E0FFF708FB801B02284F
:1016B0001FD828688007F7D42078000722D5864FE6
:1016C00087486169703771B101210160FFF7F6FA4F
:1016D000064604E0FFF7F2FA801B022809D83868B2
:1016E0008007F7D50EE0C0F800A0FFF7E7FA06463E
:1016F00005E082E0FFF7E2FA801B02287DD8386817
:101700008007F7D42078400768D5DFF8CCB10027F0
:101710000BF13C0BDBF80000C0000BD4DBF8001031
:1017200041F08051CBF80010DBF80000012700F0F9
:10173000805000906B4E3068C00510D4306840F483
:1017400080703060FFF7BAFA009005E0FFF7B6FA54
:101750000099401A022850D83068C005F6D55E4E70
:10176000A0686C3601280FD00528306810D020F012
:1017700001003060306820F004003060A068B8B12B
:10178000FFF79CFA00900FE0306840F00100F4E7AA
:1017900040F004003060F7E7FFF790FA0099411A33
:1017A00041F28830814266D830688007F4D50EE077
:1017B000FFF784FA009007E0FFF780FA0099411ADA
:1017C00041F28830814256D830688007F4D42FB176
:1017D000DBF8001021F08051CBF80010A069C8B3ED
:1017E0003D49091D0968C1F3810102294AD0022837
:1017F000504607D0C8F8600000E03CE0FFF75EFA12
:1018000004463BE04746C8F86000FFF757FA064633
:1018100005E000BFFFF752FA801B02282BD828688A
:101820008001F7D4D4E907010843A16A2E4A490888
:1018300002EB0141626A41EA8211084394F82C10DC
:1018400040EA0161C9F8001001203866FFF736FA56
:10185000044606E03EE000BFFFF730FA001B022816
:1018600009D828688001F7D534E000BFFFF726FAD1
:10187000001B022802D90320BDE8F88F28688001E8
:10188000F4D427E00128F7D0D9F80000E26900F489
:10189000800191421CD1226A00F03F01914217D190
:1018A00047F6C071626A0140B1EB821F10D1A26A93
:1018B0004FF0FF3300F4403103EB5202B1EB024F23
:1018C00006D194F82C1000F07060B0EB016F01D0DD
:1018D0000120D1E70020CFE7043802400000474252
:1018E000800E4742007000400000FFFF10B5FEF779
:1018F000EBFD10BD2DE9FE430446002603200D46F6
:1019000084F83400606C03285ED0B5F5805F5BD04E
:101910004FF4006700204FF08068BD421FD1814620
:10192000009001900021206801F058FE800113D43E
:101930006946204602F046FA07000DD1019840039F
:1019400034D5B4F850000104206801F07FFE070090
:1019500002D10221206823E0A06B384328E01DB1AA
:10196000A06B40F0006023E08146009001900021D0
:10197000206801F033FE8001EED46946204602F073
:1019800021FA0700E8D10198C0030FD5B4F8500040
:101990000104206801F05AFE0700DDD10021206813
:1019A00001F0A1FE0700D7D14F46D5E74746D3E760
:1019B000A063A06B144F4FF0010848B12068876303
:1019C00084F8348001260EE0A06B40F08050EFE7F1
:1019D000211DD4E9050C0EC9CDE90050CDF808C091
:1019E000206801F005FE4FF40071206801F062FEEE
:1019F00028B121688F63A16B0143A163012684F89C
:101A000034803046BDE8FE83FF054000704700008B
:101A1000F0B5426E920F0A70426EC2F383624A7052
:101A2000426EC2F301628A70426E120CCA70B0F844
:101A30006420120A0A7190F864204A71826E120DB5
:101A4000CA80826EC2F303420A72B0F86820C2F301
:101A5000C0324A72B0F86820C2F380328A72B0F89D
:101A60006820C2F34032CA72B0F86820C2F3003274
:101A70000A7300264E73426C4FF40075012462B164
:101A8000012A3AD0026847499163816B41F0805145
:101A9000816380F834400120F0BDB0F86820C36E47
:101AA0009205120D42EA93720A61C26EC2F3C262DB
:101AB0000A75C26EC2F302624A75C26EC2F3425226
:101AC0008A75C26EC2F38242CA75C26EC2F3C23256
:101AD0000A760A69521C42650B7E03F007039B1CC1
:101AE0009A4042650B7A03F00F0704FA07F3836507
:101AF0005B0A5A43C0E917250EE090F86820C36ED0
:101B00009206920A42EA13420A610A69521C920240
:101B10004265C0E91652056630F86C2FC2F3803278
:101B200001F8192F0288C2F3C6124A70027802F037
:101B30007F028A704268D20FCA704268C2F3417253
:101B40000A714268C2F382624A714268C2F38352E8
:101B50008A714268C2F34052CA710E724268C2F37F
:101B600000424A728288C2F3C0328A728288C2F30B
:101B70008032CA728288C2F340320A738288C2F30A
:101B800000324A738288C2F381228A738288C2F348
:101B90000122CA730079C0F3460008744C74002017
:101BA000F0BD0000FF054000426C0A60826C4A6094
:101BB000C26C8A60026DCA60426D0A61826D4A61C0
:101BC000C26D8A61006EC8610020704770B504461E
:101BD000B0F8500000250104206801F06CFE18B137
:101BE000A16B0143A16304E00021206801F0F6FC31
:101BF0000546C5F3432070BDF8B5056B0446006883
:101C0000416B09041BD5290719D5D4E90A56002EC2
:101C100014D00027206801F001FD05F8010B010A2E
:101C200005F8011B010C05F8021B000E361F7F1C76
:101C300005F8010C082FEDD3C4E90A56F8BD416B35
:101C40004FF00006C9054FF0010744D53902816302
:101C50002068C16B4CF23A329143C1632068C16A7B
:101C600021F00101C16228071DD515F0220F09D00E
:101C7000206801F051FE28B1A16B0143A163204609
:101C8000FFF7C4FE216840F23A50886384F834704C
:101C90002663A80703D0204600F040FAF8BD20468E
:101CA00000F040FAF8BD2806FCD5A80609D5206842
:101CB00001F032FE28B1A16B0143A1632046FFF77A
:101CC000A5FEA807EED12068C16A21F00801C16213
:101CD00084F83470E3E7416B490424D5290722D501
:101CE000D4E90856002EDDD05FF0000715F8010B8F
:101CF000009015F8011B361F40EA0120009015F8EE
:101D0000021B40EA0140009015F8011C40EA016006
:101D100000906946206801F094FC7F1C082FE5D3F1
:101D2000C4E90856F8BD416B40F23A221142F9D09D
:101D3000416B890703D5A16B41F00201A163416B9F
:101D4000090703D5A16B41F00801A163416B890626
:101D500003D5A16B41F02001A163416BC90603D5F6
:101D6000A16B41F01001A163416B890503D5A16B03
:101D700041F00801A16340F23A7181632068C16BB0
:101D800040F23A329143C163206801F0C5FDA16B76
:101D90000843A063280706D584F8347026632046DC
:101DA000FFF734FEF8BD2806FCD515F0300F0CD037
:101DB000E16B11480865E06BFEF7CAFC0028F1D022
:101DC000E06BBDE8F84001F0DBBFA8070CD0216C48
:101DD0000A480865206CFEF7BBFC0028E2D0206CA6
:101DE000BDE8F84001F0A3BFA66384F83470266311
:101DF0002046FFF77BFDF8BD813D00082F3D000820
:101E000070B504000ED094F83400002518B9257779
:101E1000204600F04FF8032084F83400204600F0FC
:101E20000BF808B1012070BDA5632563012084F87B
:101E30003400002070BD0000FEB500250446762069
:101E40000095CDE9015029460B460A46206801F06D
:101E5000CFFB48BB154E46F8A05F206801F0DAFBC7
:101E6000012535600220FEF7F9FD204602F092F8C8
:101E700030B100BF84F83450A16B0143A16313E07B
:101E8000204602F00FF80028F4D14FF400712068CA
:101E900001F010FC002808D0226805499163A16B6D
:101EA0000143A16384F834500120FEBD0080254227
:101EB000FF0540002DE9F04F87B005461421684624
:101EC000FEF728FA4649286888427DD145480068CF
:101ED000444940F400600860086800F40060059020
:101EE0004048143800683F4940F004001439086045
:101EF000086800F004000590086840F008000860D9
:101F00000868022400F0080005904FF4F850CDE96D
:101F1000000402AA002003264FF00C0882E84101C9
:101F200069463148FEF7C8FD02AA002082E8410157
:101F30000427CDE9007469462C48FEF7BDFD2D4C01
:101F40002B484FF00068C4E900084020A060002042
:101F50004FF48069C4E90309B8024FF4804BC4E927
:101F6000050BC4E909764FF0200A0020C4E907A058
:101F70007E05B7102046C4E90B67FEF7CDFC08B11B
:101F8000FEF7C0FBEC63A5631A4C19486034483077
:101F9000C4E900080020A060C4E90309C4E907A05F
:101FA0000420606204F12802032082E8C1004FF49B
:101FB0008051C4E9051B2046FEF7AEFC08B1FEF7D0
:101FC000A1FB2C64002200E007E005213120A5637D
:101FD000FFF798F93120FFF787F907B0BDE8F08FD8
:101FE000002C01404438024000080240000C02402E
:101FF00058640240400800102DE9F04786B01F46A3
:102000000446154639B194F83400012807D002205F
:1020100006B0BDE8F087A06B40F0006008E000204B
:10202000A063E36DEA199A4204D9A06B40F00070F6
:10203000A06369E0032284F8342022688146D062DC
:102040002268D36B40F22A363343D363236C2F4A82
:10205000DA63236C2E4ADA64226C1065226C90607D
:10206000206C0068026822F0C002026020680A4604
:10207000266C4FEA472800F180014FEA980330466A
:10208000FEF7B4FCDFF88CA0012670B12068C16BAC
:1020900021F49571C1632168C1F838A0A06B40F0AC
:1020A0008040A06384F834602EE01B480660606CBA
:1020B000012800D06D024FF0FF30CDE900089020DC
:1020C000029002200596CDE903096946206801F0D7
:1020D0006FFA012F06D9822020632946206801F07B
:1020E0005BFB05E0812020632946206801F06DFB41
:1020F00000288DD02268C2F838A0A16B0143A163EB
:1021000084F83460C4F83090012081E7ED3C000889
:10211000893C0008FF0540008C85254210B5FEF77C
:102120001BFA10BD10B5FEF72DFA10BD2DE9F04FCA
:102130005FEA010B87B01E460446114607D094F8AB
:102140003400012807D0022007B0BDE8F08FA06B53
:1021500040F0006008E00025A563E26D8819904218
:1021600004D9A06B40F00070A06356E0032084F80F
:1021700034002068C5622068C26B40F21A2942EA26
:102180000902C263E26B2D48D063E26B2C48D06435
:10219000E06B0565606C012800D049024FF09008A3
:1021A000012E05D9A0202063206801F0CFFB04E0B8
:1021B000C4F83080206801F0E2FBDFF888A0012736
:1021C00030B12268C2F838A0A16B0143A16321E0BD
:1021D0001D480760E16B40208860E06B0068016883
:1021E00021F0C00141F04001016022687602B3088D
:1021F00059468032E06BFEF7F9FB80B12068C16B75
:1022000021EA0901C1632168C1F838A0A06B40F040
:102210008040A06384F834702563012094E74FF078
:10222000FF30CDE90006CDE90285CDE904576946C6
:10223000206801F0BDF9002086E70000733D00082A
:10224000893C0008FF0540008C852542704700004E
:1022500038B5016804464A688868C043430606D515
:10226000C30704D1D3435B0601D4216C05E0830787
:1022700008D4D3431B0605D4616C01B02046BDE8E9
:1022800030400847830603D5430601D5C30551D422
:10229000D3439B064ED443060AD494F85130032B03
:1022A00049D0636D43F004036365CB688B6800938A
:1022B000830609D4636D43F0010363658B68009363
:1022C0000B6823F040030B60C00506D4606D40F03E
:1022D00008006065206880680090606D002829D043
:1022E0002068416821F0E0014160012084F851003C
:1022F000900701D4D00722D02068416821F0030163
:102300004160114DE06C40B10565E06CFEF720FACC
:1023100018B1606D40F040006065A06C002809D0E5
:102320000565A06CFEF714FA002803D0606D40F03C
:102330004000606538BDC8688868009038BD204698
:10234000FFF784FF38BD0000CD41000870B50400E0
:1023500009D0606A002540B125616561A56294F8E5
:10236000510040B10CE0012070BD6068B0F5827F83
:10237000F4D0E561F2E784F85050204600F044F8CC
:10238000022084F851002068016821F040010160BA
:10239000A088218900F4827001F404410843A189D6
:1023A00001F400610843217C01F002010843217D12
:1023B00001F001010843218B01F400710843217FE2
:1023C00001F03801084394F8201001F0800108431F
:1023D000218D01F40051084321680860A06904219F
:1023E00001EA104094F8241001F01001084321681C
:1023F00048602068C16921F40061C1616565012000
:1024000084F85100002070BD2DE9F04786B00646E3
:1024100014216846FDF77EFF33493068884260D159
:1024200032480024016841F480510160006800F4E2
:10243000805005902D481438016841F00101016079
:10244000006801A900F001000590E0200090022042
:10245000032781E891000520049069462448FEF78F
:102460002BFB254D23484FF0C0682860C5E9018447
:102470004FF48069C5E903496C61AC614FF0040A0F
:10248000EC61C5E9084AC5E90A7428462C63FEF7E1
:1024900043FA08B1FEF736F9F564AE63164D1548F8
:1024A00060357830E5E802084020A5E81102C00157
:1024B00065E805401048EC61C5E9084AAC62EC6289
:1024C00060302C63FEF728FA08B1FEF71BF9B564FB
:1024D000002207212320AE63FEF714FF2320FEF71E
:1024E00003FF06B0BDE8F0870030014044380240E9
:1024F0000000024010640240580900102DE9F84F16
:10250000984616468A460446FEF7D8FB814694F85C
:10251000510001281ED1BAF1000F73D0002E71D0E6
:1025200094F85000012815D0012784F8507003203A
:1025300084F8510000256565C4F830A0A686E686BB
:10254000A563A587E58765642564A068B0F5004F9D
:1025500003D00CE00220BDE8F88F2068016821F06C
:10256000400101602068016841F4804101602068F9
:102570000168490603D4016841F040010160E06848
:10258000B0F5006F606803D048B3012E27D047E054
:1025900008B1012E1FD1206B21680088C86006E0B9
:1025A00020688168890709D5216B0988C160206B83
:1025B000801C2063E08E401EE0860CE0FEF77EFB70
:1025C000A0EB0901414503D3B8F1FF3F03D035E04B
:1025D000B8F1000F32D0E08E0028E1D123E0206B6B
:1025E00021680078087306E02068816889070AD5A9
:1025F000216B09780173206B401C2063E08E401E24
:10260000E0860DE02BE0FEF759FBA0EB0901414508
:1026100003D3B8F1FF3F03D010E0B8F1000F0DD0A5
:10262000E08E0028E0D14A464146204601F01EFED9
:1026300008B120206065A06830B109E084F85170CD
:1026400084F85050032086E72068C16880680090B5
:1026500084F8517004F8505F60680028F3D00120BE
:1026600079E7000070B5044690F8510001281CD1AC
:10267000C9B1C2B194F85000012816D0012084F8E5
:102680005000032084F85100002565652163A2866F
:10269000E286A56365642564A587E587A068B0F533
:1026A000004F04D00DE0012070BD022070BD2068F5
:1026B000016821F0400101602068016841F4804117
:1026C0000160A16C17480864A16C1748C863A16C2D
:1026D0001648C864A06C0565E38E2268216B0C3235
:1026E000A06CFEF783F930B1606D40F010006065BA
:1026F00084F85050D7E720680168490603D4016880
:1027000041F04001016084F850502068416841F078
:10271000200141602068416841F0020141600020D1
:1027200070BD0000FF41000809420008DD410008BB
:1027300010B50068084988420CD1012211460748AB
:10274000FEF7B7FA0648002101704068BDE8104066
:1027500016F0D2B910BD0000003001400000024068
:102760006002001070477047704710B5040003D036
:1027700094F83D0010B107E0012010BD002084F85E
:102780003C00204600F01EF8022084F83D00211D88
:10279000206801F0F5FE012084F8460084F83E0030
:1027A00084F83F0084F8400084F8410084F8420037
:1027B00084F8430084F8440084F8450084F83D0020
:1027C000002010BD7047000090F83D10012901D095
:1027D00001207047022180F83D100168CA6842F06C
:1027E0000102CA6000681149884214D0B0F1804FDC
:1027F00011D00F4988420ED00E4988420BD00E49A5
:10280000884208D00D49884205D00D49884202D03F
:102810000C49884204D1816801F00701062903D0E0
:10282000016841F001010160002070470000014093
:102830000004004000080040000C0040000401407B
:10284000004001400018004070472DE9F041044667
:102850000068C66805694FF00007A90713D5B107DE
:1028600011D5F91E01610120207720688069800759
:10287000204602D0FFF7E8FF04E000F07EF8204693
:1028800000F07CF82777680716D5700714D5216803
:102890006FF004000861022020772068806910F43E
:1028A000407F204602D0FFF7CFFF04E000F065F83C
:1028B000204600F063F82777280715D5300713D591
:1028C00021686FF008000861042020772068C06943
:1028D0008007204602D0FFF7B7FF04E000F04DF874
:1028E000204600F04BF82777E80616D5F00614D5F9
:1028F00021686FF010000861082020772068C06907
:1029000010F4407F204602D0FFF79EFF04E000F065
:1029100034F8204600F032F82777E80708D0F007AF
:1029200006D021686FF001000861204600F027F80A
:10293000280608D5300606D521686FF080000861AA
:102940002046FFF710FF680608D5700606D52168F7
:102950006FF040000861204600F018F8A8060AD57C
:10296000B00608D521686FF0200008612046BDE858
:10297000F041FFF7F9BEBDE8F0817047704700688D
:10298000B0F1804F01D1FEF725BC7047704770B59C
:10299000040004D094F84100002510B106E00120A5
:1029A00070BD84F84050204600F024F8242084F8BC
:1029B00041002068C16821F40051C160204601F047
:1029C00073FE2068016921F490410161206841692A
:1029D00021F02A0141612068C16841F40051C160C1
:1029E0006564202084F8410084F84200656300207B
:1029F00070BD000010B586B0044614216846FDF78E
:102A000089FC14492068884221D1134800210268BA
:102A100042F010020260006800F0100005900E48BD
:102A20001438026842F001020260006800F0010000
:102A300005904FF4C06000900220CDE90101032011
:102A400003900720049069460448FEF735F806B065
:102A500010BD000000100140443802400000024058
:102A60002DE9F843044690F84100984616460D4675
:102A7000202802D00220BDE8F88385B17EB1002075
:102A80006064212084F84100FEF718F9A68481468D
:102A9000E684A0682027B0F5805F02D003E0012023
:102AA000E9E7206910B12E4600250EE000260CE073
:102AB0008021204601F07EFEA8B9C6B116F8010BB0
:102AC00021684860E08C401EE084E08C4B464FF06B
:102AD0000002CDF800800028EAD14FF040012046E6
:102AE00001F068FE40B184F841700320C3E735F877
:102AF000020BC0F30800E3E784F841700020BAE756
:102B00000CA001F0A9FE1948184D061D0C350168EE
:102B10002C1D17A001F0A0FE31681AA001F09CFE48
:102B200029681DA001F098FE216820A001F094FE04
:102B3000FEE700002A2A2A2A2A2A2A2A2A2A2A2AB8
:102B40002A2A2A2A2A2A486172644661756C745FAF
:102B500048616E646C65722A2A2A2A2A2A2A2A2A3D
:102B60002A2A2A2A2A2A2A2A2A0D0A0028ED00E0DF
:102B70004346535220203D2030782530386C580A87
:102B8000000000004846535220203D203078253078
:102B9000386C580A000000004D4D464152203D203F
:102BA00030782530386C580A000000004246415207
:102BB00020203D2030782530386C580A0000000075
:102BC00001684A69D24352050FD46FF480624A61AA
:102BD000002140F8301F202242738173026942F0C5
:102BE0000402026101730120704700207047000059
:102BF0002DE9F84F0446C06A1E4693460D462168EB
:102C00000A6842F480620A60082807D0012805D0CB
:102C100010F5803F02D0206B112804D12068016894
:102C200041F4807101604FF001195B460022494672
:102C30002046009600F0CCF84FF4007840B12068B0
:102C40000068C00501D5C4F840800320BDE8F88FB6
:102C50002069DFF884A0B0F5804F0FD006202168EE
:102C600000EAD51747F0F000086133465A460AF1EA
:102C70000601204600F0F4F858BB03E0E8B240F04B
:102C800001001CE02168E8B2086133465A4651460B
:102C9000204600F0E5F8E0B92068416981690091BB
:102CA000016841F4807101605B460022494620467C
:102CB000009600F08DF80028C1D147F0F10021689E
:102CC000086133465A465146204600F0C9F80028AC
:102CD000BCD00120BAE7000002000100F8B50446AC
:102CE000C06A1E460D461746082807D0012805D0A1
:102CF00010F5803F02D0206B122804D120680168B3
:102D000041F480710160134600224FF0011120460A
:102D1000009600F05DF840B120680068C00502D55B
:102D20004FF4007020640320F8BD2069B0F5804F97
:102D30000ED00620216800EAD51040F0F0000861AE
:102D400033463A460B49204600F08AF878B902E04B
:102D500005F0FE0000E0E8B221680861054933464D
:102D60003A46891F204600F07BF80028DCD001207D
:102D7000F8BD00000800010070B516460D46044677
:102D80001EE02046FFF71CFF08B1012070BD681C43
:102D900016D0FDF793FF801BA84200D885B92068A4
:102DA0004069C04340070BD5002044F8300F202174
:102DB0006173A073216941F0200121612073E4E770
:102DC00020684069C0434007DBD4002070BD00008C
:102DD0002DE9F047984617460D460446C1F30746CD
:102DE000DDF820902AE000BFB8F1FF3F26D0FDF7C4
:102DF00065FFA0EB0901414502D8B8F1000F1DD1D4
:102E00002068012E16D0806925EA00000004000C1D
:102E100012D00020B84211D1002044F8300F2021F8
:102E20006173A073216941F02001216120730120A9
:102E3000BDE8F0874069E7E70120EBE72068012E55
:102E40000AD0806925EA00000004000C06D00020AA
:102E5000B842C9D00020EBE74069F3E70120F7E76B
:102E60002DE9F047984616460D4604464FF00009F6
:102E70004FF0200AC1F3074723E020684069C043B0
:102E8000400515D42068016841F400710160216893
:102E90006FF480604861C4F8309084F83DA084F8F5
:102EA0003E90216C41F00401216484F83C9021E0C3
:102EB000701C06D0FDF702FFA0EB0800B04203D85B
:102EC00016B1012F1FD021E02068012F15D0806995
:102ED00025EA00000004000C18D000BF44F8309F21
:102EE00084F80DA084F80E90216941F02001216141
:102EF00084F80C900120BDE8F087406925EA0000C5
:102F00000004000CEAD12068406901E02068806973
:102F100025EA00000004000CAFD1ECE72DE9F041F8
:102F2000002590460E460446202728E04069C0430D
:102F3000C0060CD454F8301B6FF01000486144F800
:102F400010596777A577206A2062257714E0FDF78E
:102F5000B5FEA0EB0800B04200D886B920684069F1
:102F6000C04340060BD544F8305F6773A5732069F2
:102F700040F02000206125730120BDE8F081206829
:102F80004169C9434906D1D40020F6E770B5164619
:102F90000D4604461EE02046FFF712FE08B1012050
:102FA00070BD681C16D0FDF789FE801BA84200D8B2
:102FB00085B920684069C04300060BD5002044F85D
:102FC000300F20216173A073216941F0200121613C
:102FD0002073E4E720684069C0430006DBD400208A
:102FE00070BD2DE9F04106461C4617460D462A20C5
:102FF00000F02AF9304600F01DF9384600F01AF9C1
:103000002B2000F021F91435A8B200F013F9143484
:10301000A0B200F00FF9BDE8F0412C2000F014B987
:103020002DE9F04780461F46581E83B21646501EB3
:1030300082B20C464046DDF82090FFF7D2FF0AE04E
:10304000454604E0484600F0F5F86D1CADB2B542C7
:10305000F8D3641CA4B2BC42F2D3BDE8F0870000F0
:1030600010B5734C002208212046FDF722FE642093
:10307000FDF7F4FC012208212046FDF71AFE64202A
:10308000FDF7ECFC012204212046FDF712FE64202E
:10309000FDF7E4FC112000F0D7F87820FDF7DEFC06
:1030A000362000F0D1F8002000F0E2F83A2000F0DD
:1030B000CBF8052000F0DCF8532000F0C5F82820FC
:1030C00000F0C2F8B22000F0BFF80C2000F0D0F8F9
:1030D0000C2000F0CDF8002000F0CAF8332000F0FA
:1030E000C7F8332000F0C4F8B72000F0ADF8352061
:1030F00000F0BEF8BB2000F0A7F8322000F0B8F8CE
:10310000C22000F0A1F8012000F0B2F8C32000F0C6
:103110009BF8152000F0ACF8C42000F095F82020B2
:1031200000F0A6F8C62000F08FF80F2000F0A0F8FD
:10313000C72000F089F8002000F09AF8D02000F0B5
:1031400083F8A42000F094F8512000F091F8DF20DB
:1031500000F07AF85A2000F08BF8692000F088F827
:10316000022000F085F8002000F082F8E02000F056
:103170006BF8D02000F07CF8082000F079F80E20E1
:1031800000F076F8092000F073F8092000F070F8DC
:10319000052000F06DF8312000F06AF8332000F0CF
:1031A00067F8482000F064F8172000F061F8142058
:1031B00000F05EF8152000F05BF8312000F058F8C0
:1031C000342000F055F8E12000F03EF8D02000F067
:1031D0004FF8082000F04CF80E2000F049F80920C4
:1031E00000F046F8092000F043F8152000F040F800
:1031F000312000F03DF8332000F03AF8482000F08C
:1032000037F8172000F034F8142000F031F81520BA
:1032100000F02EF8312000F02BF8342000F028F8D0
:10322000212000F011F8BDE81040292000F00CB872
:103230000000024010B50446000A00F019F8E0B2A0
:10324000BDE8104000F014B870B5084C05460022E7
:1032500002212046FDF72DFD284600F009F8204602
:10326000BDE8704001220221FDF723BD00000240AD
:1032700031B5094C002201212046FDF71AFD6423D7
:10328000012269460548FFF739F901221146204617
:10329000FDF70FFD38BD00000000024000090010DE
:1032A000154808B5016841F48001016000680022FA
:1032B00000F48000009006213820FEF723F8382023
:1032C000FEF712F8002206213B20FEF71BF83B20F8
:1032D000FEF70AF8002206214420FEF713F84420E6
:1032E000FEF702F8002206214520FEF70BF8BDE8A4
:1032F00008404520FDF7F8BF3038024010B50649B8
:103300000648FDF701FA044CA41EA11D20700448D4
:10331000FDF7FAF9607010BD22000010D4D7020842
:103320002C00001010B596B0012029F005FC154CBA
:10333000206020B914A001F08FFAFDF7E3F91C22F8
:1033400018496846FCF7CDFF0021684624F082FA50
:103350001449E0601C221C3107A8FCF7C2FF0021C1
:1033600007A824F077FA0F4920611C2238310EA8F3
:10337000FCF7B7FF00210EA824F06CFA606116B0CC
:1033800010BD0000000000106661696C20746F20A1
:10339000637265617465207853444D757465780D6A
:1033A0000A00000080D702082DE9F04786B01421FA
:1033B0006846FCF7AFFF41480025016841F0040171
:1033C0000160016801F004010591016841F02001EC
:1033D0000160016801F020010591016841F0800160
:1033E0000160016801F080010591016841F001016F
:1033F0000160016801F001010591016841F00801D7
:103400000160016801F008010591016841F00201C5
:10341000016000682A4F00F002004FF4C06405907C
:10342000012221463846FDF744FCDFF8989001223E
:103430000F214846FDF73DFCDFF88CA04FF4807863
:10344000012241465046FDF734FC009401AA0124B4
:10345000032682E8700069463846FDF72DFB0F20F1
:10346000CDE90004CDE9024669464846FDF724FB54
:10347000202702200097CDE9015069461348FDF747
:103480001BFB4FF404100097CDE901046946504638
:10349000FDF712FB01AACDF8008082E870006946B2
:1034A0005046FDF709FB002207211720FDF72AFFF0
:1034B0001720FDF719FF06B0BDE8F087303802404D
:1034C00000140240000002400004024000080240D4
:1034D0000D4810B50B4901600C49416000214FF4C3
:1034E00080428160C0E9031241618161C161016272
:1034F000FDF7EAFB002803D0BDE81040FDF702B954
:1035000010BD00000054004068070010A0860100B4
:103510000648054901600021416081600822C160C0
:10352000C0E9051201617047002C0140BC07001082
:103530000F4810B50D4901604FF4827141600021C0
:103540008160C1604FF400720161C0E90512C16180
:103550000162416281620A21C162FEF7F7FE002822
:1035600003D0BDE81040FDF7CDB810BD00300140DC
:10357000000900100C4810B50A4901604FF4E13110
:103580004160002181600C22C160C0E904128161A8
:10359000C161FFF7FCF9002803D0BDE81040FDF73A
:1035A000B1B810BD00100140180A0010FEE7FEE798
:1035B0000A6842624A688262D1E902231A43D1E969
:1035C00004310B43C16A1A4321F0F7011143C16270
:1035D00000207047006800F003007047084440690D
:1035E000704700000148FEF707BB0000BC07001051
:1035F00070B50DF1100C11439CE870002343194382
:1036000029434268314347F6FF639A430A434260C5
:10361000002070BD0321016000207047D0F88000B9
:1036200070470A688260D1E901231A43D1E9033166
:103630000B43C1681A436FF30B011143C1600020B3
:1036400070470968C0F880100020704710B585B039
:1036500004463720CDE9001040200290002003905E
:103660004FF48060049069462046FFF7DAFF41F28C
:1036700088323721204600F09BF905B010BD0000CC
:1036800010B504460A4885B001432920CDE9001051
:1036900040200290002003904FF48060049069461F
:1036A0002046FFF7BEFF204600F03AFA05B010BDF5
:1036B0000000108010B585B004461020CDE9001040
:1036C00040200290002003904FF4806004906946EF
:1036D0002046FFF7A6FF41F288321021204600F075
:1036E00067F905B010BD10B585B004460620CDE9D8
:1036F000001040200290002003904FF4806004905E
:1037000069462046FFF78DFF41F2883206212046A8
:1037100000F04EF905B010BD30B585B00024054667
:10372000009401944FF480600294CDE9034069460F
:103730002846FFF776FF0B484FF4FA510068B0FBBC
:10374000F1F041F288314843401E03D24FF000406F
:1037500005B030BD696B0906F6D5C520A8632046C3
:10376000F6E700004C00001010B585B004464FF499
:10377000D570009008200190402002900020039016
:103780004FF48060049069462046FFF74AFF2046C8
:1037900000F02CFA05B010BD10B585B0044612201B
:1037A000CDE9001040200290002003904FF480608B
:1037B000049069462046FFF734FF41F28832122117
:1037C000204600F0F5F805B010BD10B585B00446F0
:1037D0001120CDE9001040200290002003904FF40A
:1037E0008060049069462046FFF71BFF41F2883253
:1037F0001121204600F0DCF805B010BD10B585B0F1
:1038000004460720CDE900204020029000200390CC
:103810004FF48060049069462046FFF702FF41F2B2
:1038200088320721204600F0C3F805B010BD10B55E
:1038300085B0044600210220CDE90010C020CDE96A
:1038400002014FF48060049069462046FFF7E9FECC
:10385000204600F03DF905B010BD10B585B0044616
:103860000920CDE90010C0200290002003904FF401
:103870008060049069462046FFF7D3FE204600F0A2
:1038800027F905B010BD10B585B0044600213320DE
:10389000CDE900104020CDE9020100010490694605
:1038A0002046FFF7BEFE41F288323321204600F069
:1038B0007FF805B010BD10B585B004460D20CDE9E8
:1038C000001040200290002003904FF4806004908C
:1038D00069462046FFF7A5FE41F288320D212046B9
:1038E00000F066F805B010BD30B585B00C46054651
:1038F00000210320CDE900104020CDE902010001A4
:10390000049069462846FFF78CFE2246032128468C
:1039100000F028F905B030BD10B585B0044600218F
:103920000C20CDE900104020CDE9020100010490F7
:1039300069462046FFF775FE034A0C21204600F039
:1039400037F805B010BD000000E1F50510B585B0F1
:1039500004461920CDE90010402002900020039079
:103960004FF48060049069462046FFF75AFE41F20A
:1039700088321921204600F01BF805B010BD10B5A3
:1039800085B004461820CDE90010402002900020A8
:1039900003904FF48060049069462046FFF741FE93
:1039A00041F288321821204600F002F805B010BD1F
:1039B000454B10B51B684FF4FA54B3FBF4F3534373
:1039C0005B1E02D24FF0004010BD426B12F0450F5B
:1039D000F6D01205F4D4426B520703D5042181635B
:1039E000084610BD426BD20702D00121816305E079
:1039F000C52282630269D2B28A4201D0012010BD81
:103A00000021FFF7EBFD3149084201D1002010BD34
:103A1000002802DA4FF0007010BD410001D54020AF
:103A200010BD810001D5802010BDC10002D54FF42A
:103A3000807010BD010102D54FF4007010BD41012E
:103A400002D54FF4806010BDC10102D54FF4006073
:103A500010BD010202D54FF4805010BD410202D5C5
:103A60004FF4005010BD810202D54FF4804010BDCC
:103A7000C10202D54FF4004010BD410302D54FF4FE
:103A8000003010BD810302D54FF4802010BDC1036A
:103A900002D54FF4002010BD010402D54FF4801070
:103AA00010BD410402D54FF4001010BD810402D5B1
:103AB0004FF4800010BD000702D54FF4000010BD88
:103AC0004FF4803010BD00004C00001008E0FFFDF6
:103AD00012494FF4FA520968B1FBF2F141F288320F
:103AE0005143491E02D24FF000407047426B12F022
:103AF000450FF6D01205F4D4416B490703D50421D4
:103B0000816308467047416BC90703D00121816377
:103B100008467047C5218163002070474C000010A3
:103B20000F494FF4FA520968B1FBF2F141F28832C1
:103B30005143491E02D24FF000407047426B12F0D1
:103B4000450FF6D01205F4D4416B490703D5042183
:103B5000816308467047C5218163002070470000DB
:103B60004C00001030B5204B4FF4FA541B68B3FBE7
:103B7000F4F341F2883463435B1E02D24FF00040FD
:103B800030BD446B14F0450FF6D02405F4D4436BDC
:103B90005B0703D504218163084630BD436BDB0717
:103BA00002D00121816303E00369DBB28B4201D0C3
:103BB000012030BDC52181630021FFF70FFD10F406
:103BC000604F04D0410406D54FF4005030BD000CC6
:103BD0001080002030BD000402D54FF4805030BD6D
:103BE0004FF4803030BD00004C00001014494FF4F9
:103BF000FA520968B1FBF2F141F288325143491E91
:103C000002D24FF000407047426B12F0450FF6D0E1
:103C10001205F4D4416B490703D50421816308469A
:103C20007047416BC90703D0012181630846704783
:103C3000416B490601D54021816300207047000097
:103C40004C00001010B5064C01202070FCF744FC1D
:103C500018B9207820F001002070207810BD0000F5
:103C60001800001070B5054623F0D7FC044603E0A9
:103C7000FCF732FC002806D023F0CFFC001BA84242
:103C8000F6D34FF0FF3070BD10B5846BFCF772FDBA
:103C9000022828D0206C416DE06B406D012901D0D5
:103CA00001281DD12168104888632068C16B21F468
:103CB0009D71C163A06B40F08040A0632046FDF77A
:103CC00085FF062801D0052805D12068FFF724FECE
:103CD000A16B0843A063012084F834000020206316
:103CE0002046FDF793FE10BDFF05400010B5846B24
:103CF000206B822809D12068FFF70EFE28B1A16B46
:103D00000143A1632046FDF781FE2068C16A21F0CE
:103D10000801C162216840F23A508863012084F8AA
:103D20003400002020632046FEF7F8F910BD10B5DE
:103D3000846B40F23A50216888632046FDF746FFC5
:103D4000012184F8341000212163062801D00528C0
:103D500005D12068FFF7E0FDA16B0843A063A06BCD
:103D60000028204602D0FDF751FE10BDFDF7BEFD34
:103D700010BD806B0068C16B41F48071C1637047F6
:103D800010B5846B40F23A50216888632046FDF7F5
:103D90001DFF012184F8341000212163062801D081
:103DA000052805D12068FFF7B7FDA16B0843A06384
:103DB000A06B0028204602D0FDF728FE10BDFDF7BD
:103DC00095FD10BD2DE9F04788B00D460446FCF77F
:103DD00075FF002682460096019637460821206826
:103DE000FFF768FC00282CD1B4F8500001042068CB
:103DF000FFF72CFC002824D1401E4FF00808CDE925
:103E0000020830204FF00209CDE904090120CDE974
:103E1000067002A92068FFF7CBFB2068FFF733FD8F
:103E200000280ED16F462068416B11F02A0F0BD08D
:103E3000416B090702D4416B89051AD5C0F8388057
:103E4000082008B0BDE8F087416B890205D5FFF76F
:103E5000E5FB47F82600761C02E0416B8904E7D5B4
:103E6000FCF72CFFA0EB0A00401CDCD14FF0004017
:103E7000E7E7416B890703D5C0F838900220E0E7F7
:103E8000416B890603D5202181630846D9E740F2BA
:103E90003A518163019800BA2860009800BA6860BE
:103EA0000020CEE710B590B004460120ADF83800F0
:103EB0002068FFF78FFB002854D0606C032842D0A5
:103EC0002068FFF7B4FC00284AD100212068FFF7E2
:103ED00085FB606704212068FFF780FBA06708214D
:103EE0002068FFF77BFBE0670C212068FFF776FB7B
:103EF000C4F88000606C032825D00EA92068FFF765
:103F0000F3FC00282CD1606C03281CD0BDF83800CD
:103F1000206501042068FFF7A0FC002820D10021C3
:103F20002068FFF75BFB606604212068FFF756FB03
:103F3000A06608212068FFF751FBE0660C2120688D
:103F4000FFF74CFB206704212068FFF747FB000DBB
:103F5000E06403A92046FDF75BFD30B14FF08050CF
:103F600010B010BD4FF08060FAE7B4F850000023A5
:103F700002042068FFF742FC0028F1D104F1100090
:103F800007C88DE8070094E80F00FFF731FB002019
:103F9000E6E700002DE9F84F002604460096354676
:103FA000B0460068FFF7B8FB002827D12068FFF76C
:103FB000DBFB4FF0805B4FF001094FF6FF7748B114
:103FC000A6642068FFF7A8FB002817D1A06C012881
:103FD00002D020E0C4F8489000212068FFF736FBAB
:103FE00058B918E000212068FFF730FB002805D100
:103FF00051462068FFF744FB10B15846BDE8F88FE2
:1040000000212068FFF7EAFA05464FEAD0780098C9
:10401000401C009002E0DFF82CA00098B84202D2C9
:10402000B8F1000FDED00098B84202D34FF0807094
:10403000E4E7680002D5C4F8449000E0666400201C
:10404000DCE70000000010C17FB5124C05460120DE
:10405000207023F0D4FAC8B1FCF74AFA18B9284600
:10406000FFF7F0FD2070207801280FD0606868B954
:10407000094B0FCB8DE80F000021684623F0D9FAD9
:10408000606018B9207840F001002070207804B0FA
:1040900070BD000018000010E8D7020810B51248E3
:1040A00088B014460078C00702D0032008B010BDC5
:1040B000C1B1012905D0022908D003290CD0042060
:1040C000F4E76846FCF702FA06980AE06846FCF74F
:1040D000FDF90798208005E06846FCF7F7F9079896
:1040E000400A20600020E1E7180000102DE9FE439F
:1040F00047F230541E461746884601252046FFF7F2
:10410000B1FD00281EDB324639464046FCF716FA60
:10411000C0B90F4822464168684623F09DFADDE9A0
:10412000001010290ED101280CD123F076FA064692
:1041300003E000BFFCF7D0F938B123F06EFA801B22
:10414000A042F7D32846BDE8FE830025FAE7000029
:1041500018000010FFF776BD2DE9FE4347F23054FA
:104160001D461746884601262046FFF77BFD00289E
:104170001EDB2A4639464046FCF7F6F9C0B90F481F
:1041800022464168684623F067FADDE900101029ED
:104190000ED102280CD123F040FA054603E000BFFF
:1041A000FCF79AF938B123F038FA401BA042F7D354
:1041B0003046BDE8FE830026FAE700001800001034
:1041C0000148FEF745B800000009001010B5806BEB
:1041D0000021C187C186FEF739F810BD10B5806B8C
:1041E00001684A6822F003024A60416D41F0100103
:1041F0004165012180F85110FEF728F810BD10B577
:10420000806BFEF7AFFA10BD38B50546846BFCF73E
:1042100055FD024628680068C00523D4206841681F
:1042200021F0200141602068416821F002014160D5
:104230006421204600F01AF818B1606D40F02000AB
:104240006065A068002118B92068C2688068009085
:10425000E186012084F85100606D18B12046FDF719
:10426000F5FF38BD2046FEF763FA38BDF8B51546B0
:104270000E460B46009204460122022100F02CF863
:10428000A0B9134813490068B0FBF1F04FF47A71FC
:10429000484300906068B0F5827F0DD1334600221C
:1042A00080212046009500F017F870B1606D40F055
:1042B000200060650320F8BD009830B1401E0090DA
:1042C00020688068C0430006F6D50020F8BD0000D5
:1042D0004C00001000366E012DE9F8431E46914651
:1042E00088460446089DFCF7E9FC401B351AFCF79C
:1042F000E5FC074625480068C0F3CB30684338E04A
:10430000701C37D0FCF7DAFCC01BA84203D215B1F1
:10431000009860B32CE02068416821F0E001416022
:104320006068B0F5827F0BD1A068B0F5004F02D075
:10433000B0F5806F04D12068016821F04001016070
:10434000A06AB0F5005F09D12068016821F400512E
:1043500001602068016841F400510160012084F887
:104360005100002084F850000320BDE8F8830025A8
:10437000401E00902068816838EA010004D00021C6
:104380004945BDD10020F0E70121F9E74C000010BC
:1043900001221E491E480CF06BFB1E4C207028B3F6
:1043A000032827D00D281FD01B4801781BA000F040
:1043B00053FA1F4A1548111F0CF093F92070D8B119
:1043C0001CA000F049FA00BF19F03CFA1FF0C6FB30
:1043D0001FF0E6FB0CF0F6FF0CF0BCFF21F032FF03
:1043E0001E2028F039F9F9E718A000E01BA000F022
:1043F00033FADEE71EA0FAE70D4808388168406806
:104400008A0A810A1EA000F027FADDE722000010C8
:1044100000A0002020000010210000106F746865CB
:1044200072206572726F722025640D0A0000000010
:104430000800001020476574667265652065727219
:104440006F72212121200D0A000000006D6B667340
:10445000206572726F72200D0A0000006D6F756E1C
:1044600074207375636365737366756C200D0A0041
:1044700046525F4E4F545F5245414459200D0A0049
:1044800020746F74616C203A202564204D422C66A4
:10449000726565203A202564204D4220200D0A0DCA
:1044A0000A00000010B5502080F31188BFF34F8F31
:1044B000BFF36F8F28F096FF18B104494FF080507A
:1044C0000860002080F3118810BD000004ED00E0BA
:1044D00030B593B030216846FBF71CFF14210CA8BF
:1044E000FBF718FF1D480025016841F0805101606D
:1044F000006800F0805011901948016841F4804133
:1045000001600068022400F48040119001200390B3
:1045100010200490009406940820CDE90750A820AC
:10452000CDE9090407200B906846FDF729F808B18A
:1045300072B6FEE70CA90F2081E831004FF4A050BD
:104540000F904FF48050109005210CA8FCF70CFF41
:10455000002801D072B6FEE713B030BD40380240EB
:10456000007000400248016841F47001016070472A
:1045700088ED00E00148FEF768B90000600A00100D
:10458000F0B50268294C2A4D2A4E2B4F2B4B4FF089
:10459000804CA04209D0604507D0A84205D0B04267
:1045A00003D0B84201D0984204D122F0700E4A687C
:1045B00042EA0E02A0421BD0604519D0A84217D093
:1045C000B04215D0B84213D0984211D01C4DA84229
:1045D0000ED01C4DA8420BD01B4DA84208D01B4D3D
:1045E000A84205D01A4DA84202D01A4DA84203D1C4
:1045F00022F44075CA682A434D6922F080022A439A
:1046000002608A68C2620A688262A04201D098424F
:1046100001D109690163012141610169C90703D021
:10462000016921F001010161F0BD000000000140BD
:104630000004004000080040000C0040000401405D
:104640000040014000440140004801400018004083
:10465000001C00400020004001680C3151E8002F90
:1046600022F4907241E80023002BF5D10168143147
:1046700051E8002F22F0010241E80023002BF5D180
:10468000016B012909D101680C3151E8002F22F09A
:10469000100241E80023002BF5D1202180F84210C0
:1046A000002101637047000070B50446006801698D
:1046B000E26821F44051114301612169A068E26977
:1046C00008436169114308432168CA6849F20C63D1
:1046D0009A430243CA6020684169A26921F440718B
:1046E0001143416131492068884202D030498842F3
:1046F00002D1FCF703FF01E0FCF7F0FEE2690023C2
:10470000192164253226B2F5004F626828D0A0FB3B
:104710000101930F9200FBF7B3FD0146B0FBF5F0EA
:104720006FF01802504301EB800006EB0010B0FB65
:10473000F5F000F0F002B1FBF5F002EB0012B1FB76
:10474000F5F06FF01803584301EB800006EB001002
:10475000B0FBF5F000F00F0021681044886070BDD8
:10476000A0FB010192185B41FBF78AFD0146B0FBFB
:10477000F5F00201B1FBF5F06FF01803584301EBBF
:10478000800006EBC000B0FBF5F000F0F80002EB93
:104790004002B1FBF5F0584301EB800006EBC0008E
:1047A000B0FBF5F000F00700D6E700000010014074
:1047B000001401402DE9F843984617460D4604467B
:1047C000089E24E0701C22D0FCF778FAA0EB0800C9
:1047D000B0421AD8CEB12068C168490717D5802DDC
:1047E00015D0402D13D00168C94309070FD40168C3
:1047F0000025406800902046FFF72EFF08206064E7
:1048000084F840500120BDE8F8830320FBE72068CE
:10481000006835EA000004D00020B842D2D0002061
:10482000F1E70120F9E7000002480121017000785A
:10483000704700002A0000100120704700207047D8
:104840000248012101700078704700002A00001022
:1048500000207047FEE700000FB4054B10B503A918
:10486000044A029801F032FD10BC5DF814FB000010
:1048700085280108100300100FB41CB50246002063
:1048800007AC00290BD0491ECDE90021054B6A4633
:104890002146069801F01AFD009A002111701CBCF7
:1048A0005DF814FB2F6700080907090E002804DBD8
:1048B00000F1E02080F80014704700F00F0000F1D4
:1048C000E02080F8141D704702E008C8121F08C1DC
:1048D000002AFAD170477047002001E001C1121F81
:1048E000002AFBD1704770B5044600256FF02F06F3
:1048F00008E02068411C2160007805EB850106EB8B
:10490000410145182068007800F004F80028F0D133
:10491000284670BD3038092801D801207047002092
:104920007047000010B54421074800F087FF0022BF
:104930000A21064821F04EFC054CA06002F09EFAC8
:104940000020207010BD0000300B0010316F0008F7
:10495000CC0000102DE9F0470E468146174611465F
:10496000304600F01CF94FF0FF3A00287DD00022BD
:104970003946304600F0BFF800284FF0000075D1EE
:10498000B6F90480B6F900305246A8EB0301491C81
:104990000AFA81F10FFA81FAB6F906C0B6F90210E7
:1049A000ACEB010C0CF1010C02FA8CF2B7F802C06E
:1049B00012B2ACEB010C0FFA8CFCBCF1000F0EDD57
:1049C00063F30F0468F30F0501EB0C0061F31F4460
:1049D00060F31F45C9F800400120C9F80450B7F939
:1049E00006107388CB1AD21A12B2002A13DDB6F958
:1049F000063099420FDA338863F30F04B38861F30A
:104A00001F4463F30F05114461F31F4509EBC00117
:104A1000401C0C604D60B7F90220B6F902108A42C2
:104A200000DD1146B7F90630B6F90620934200DAE8
:104A30001A463B88B6F900C0521AA3EB0C031BB20E
:104A400012B2002B10DD002A0EDD634463F30F0564
:104A50008B1863F31F456CF30F0409EBC00361F37C
:104A60001F441C605D60401C01E01AE017E0B7F9CC
:104A7000043036889F1BAAEB070636B2002E0EDDE7
:104A800063F30F0461F31F44334463F30F051144D0
:104A900061F31F4509EBC001401C0C604D60BDE88F
:104AA000F0875046FBE770B5B1F90030B2F900402D
:104AB000A34200DC23460380B1F90250B2F9024060
:104AC000A54200DD2C464480B1F90460B2F90450DF
:104AD000AE4200DA35468580B1F90610B2F90620FB
:104AE000914200DB1146C1800120AB4201DC8C42C7
:104AF00000DD002070BDF8B50D460446B0F9000099
:104B0000B1F900101646884247DBB4F90210B5F936
:104B10000220914241DBB4F90410B5F9042091421E
:104B20003BDCB4F90610B5F90620914235DC96B3AA
:104B3000ADF800006088ADF80200324669462846AC
:104B400000F099F8002827D0A088ADF80000608810
:104B5000ADF8020032466946284600F08CF800287D
:104B60001AD02088ADF80000E088ADF80200324687
:104B70006946284600F07FF800280DD0A088ADF8DF
:104B80000000E088ADF8020032466946284600F091
:104B900072F8002800D00120F8BD0020F8BDB0F95F
:104BA0000020B1F904309A4213DCB0F90420B1F9C5
:104BB00000309A420DDBB0F90220B1F906309A427A
:104BC00007DCB0F90600B1F90210884201DB0120D0
:104BD000704700207047F8B50D460446B0F9040050
:104BE000B1F900101646884243DBB4F90600B5F966
:104BF000021088423DDBB4F90000B5F90410884288
:104C000037DCB4F90210B5F90620914231DC76B3F5
:104C1000ADF800006088ADF80200324669462846CB
:104C200000F029F818BBA088ADF800006088ADF846
:104C3000020032466946284600F01DF8B8B92088BF
:104C4000ADF80000E088ADF802003246694628461B
:104C500000F011F858B9A088ADF80000E088ADF870
:104C6000020032466946284600F005F808B10020E7
:104C7000F8BD0120F8BD2DE9FC4114460E46B1F9FE
:104C80000020B0F9001005468A423ADBB5F904006D
:104C9000824236DCB6F90270B5F90220974230DB69
:104CA000B5F906309F422CDC002C75DD401A9A1AAB
:104CB000401C521C00B212B200EBD07002EBD27258
:104CC00040105210904200DB1046844200DD044642
:104CD000ADF80010288800222044ADF80400688850
:104CE000ADF80200688831462044ADF806006846F9
:104CF000FFF7C1FF40B1BDF804002044ADF8040047
:104D00003FE00020BDE8FC81E8880022001BADF8F0
:104D10000200E888ADF8060031466846FFF7ABFFB1
:104D200028B1BDF804002044ADF8040011E0A888C3
:104D30000022001BADF80000A888ADF80400314641
:104D40006846FFF798FF50B1BDF80000001BADF8B2
:104D50000000BDF80200001BADF8020016E06888F4
:104D6000ADF80200688800222044ADF80600314604
:104D70006846FFF780FF70B1BDF80000001BADF87A
:104D80000000BDF806002044ADF806003146684634
:104D90001EF0C8FEB6E7FFE70120B3E710B5B1F992
:104DA0000040B2F900309C4200DA23460380B1F99A
:104DB0000240B2F902309C4200DA23464380B1F946
:104DC0000440B2F904309C4200DD23468380B1F9EF
:104DD0000610B2F90620914200DC1146C18010BDD8
:104DE0002DE9FC41054621F0A3F900267D4C07463C
:104DF00000960DB1E86801E013F084FE6060006980
:104E00001EF08CFD6068406908B11EF087FD606887
:104E1000C0691EF083FD6068006A1EF07FFD606857
:104E2000016991B11EF026FF23F002FF23F028FC58
:104E30006068B0F85011E1B30068017CC9071ED06A
:104E4000C0684068D8B1002514E0A0F85061BDE802
:104E5000FC81411991F8301151B900F5AC7000F0A6
:104E600044FD616801EBC5010A6B0260496B41605A
:104E70006D1CADB26068B0F85011A942E9D8606805
:104E80004FF4807130301AF0C1F96068202100F5CC
:104E900098701AF0BBF96068A0F85061384621F0AC
:104EA00041F9009060680068436A13B12268009974
:104EB00098471AF029F800F0CFF800F0A1F84A4D11
:104EC0006F69EFBB13F01EFE13F04AFE18F08EFE62
:104ED000074600227F211EF036FC002211461046B4
:104EE00013F0E2F80190BDF80410002238461EF0DD
:104EF00019FCFF221146104613F0D6F80190BDF8B8
:104F00000410002238461EF073FC002203213846AC
:104F10001EF064FC0022032138461EF050FC0022E3
:104F2000032138461EF050FC0022032138461EF0B3
:104F300050FC0022032138461EF055FC2BA100E056
:104F400009E0384619F0D8FC00231A4606213846F5
:104F50001AF048FD6F61286821F0E4F8B0F5967FFB
:104F60000DD2206841F2883188427FF670AF6868C0
:104F7000009908446860A868401CA86067E721F0B1
:104F8000D7F828606068406828B100684FF47A71EB
:104F9000B1FBF0F000E06420696809B901216960A3
:104FA000A968E1B14FF47A7251436A68B1FBF2F437
:104FB0006E60AE60844200D90446286920442861AE
:104FC000E868401CE86021F037F9C0F1640302B0E2
:104FD00022463846BDE8F04105A119F0C4BC04469C
:104FE000E6E7000088000010E80A00103F0000001B
:104FF0002575204650530A25752525204350550018
:1050000070B50A4D002400BFC4EBC40655F8260055
:1050100008B119F0EDFF05EB86001C211AF0F6F837
:10502000641CE4B2042CEFD370BD0000E00B001050
:10503000084949680AE04A68824202D00A68824206
:1050400003D10A7E42F001020A7649690029F2D1B1
:10505000704700005C000010704700000421014808
:1050600000F0ECBB240B00102021014800F0E6BB4F
:105070003C0B00102DE9FF410446DDE90A671D00E5
:105080004FF0000002D1B6F5807F2BD00390019045
:105090000290ADF80C100090ADF80410ADF80A20A5
:1050A000ADF80E203B463246294668461EF09AFC73
:1050B0003B463246294601A81EF094FC3B46324648
:1050C000294602A81EF08EFC3B463246294603A81C
:1050D0001EF088FCBDF90000BDF90430984209DAE1
:1050E000054608E02080491E6080A180521EE280B3
:1050F000BDE8FF811D46BDF90820BDF90C108A42AC
:1051000001DA164600E00E46B54203DA984206DBA5
:10511000184604E08A4201DA104600E00846801E84
:105120002080BDF90030BDF90420934201DD1D4609
:1051300000E01546BDF90800BDF90C10884201DDFC
:10514000064600E00E46B54205DD934201DD1946F4
:1051500004E0114602E0884200DD0146891CA1807E
:10516000BDF90230BDF90620934201DA1D4600E088
:105170001546BDF90A00BDF90E10884201DA06464F
:1051800000E00E46B54205DA934201DA194604E022
:10519000114602E0884200DA0146891E6180BDF9AD
:1051A0000230BDF90620934201DD1D4600E01546A0
:1051B000BDF90A00BDF90E10884201DD064600E087
:1051C0000E46B54205DD934201DD194604E0114665
:1051D00002E0884200DD0146891CE18088E700008A
:1051E0002DE9F047404E884691463188824621B1EC
:1051F0003E483F4C056800200FE00020BDE8F087E6
:1052000000EB400202EBC00205EB82039A6AA24265
:1052100001DD521E9A62401C80B28842F0D3002405
:105220001FFA88F728E000BF04EB440000EBC4003D
:1052300005EB800001898F421CD1C2684A4519D113
:105240004168504617F0F6FAA0B104EB440000EBB9
:10525000C40005EB8000C269816A11444FF47A7280
:105260008162914200DD82620028C7D12C46012074
:10527000328812E0641CA4B230888442D4D3F5E7AB
:1052800000EB400101EBC00105EB8101A66A8B6ACE
:10529000B34200DA0C46401C80B29042F0D3606802
:1052A00010B1204617F08BFE20F042FF05464B461A
:1052B00042465146204617F0CFFE20B10020A062A2
:1052C000E06940B10EE02C21204619F09FFF4FF01D
:1052D0000040A06291E7284620F024FFE06108B971
:1052E0000120E061204689E790000010E8000010EE
:1052F0000100008010B51421074800F09FFA17F054
:1053000071FE40B105490160054941600549816070
:105310000549C16010BDFEE7480B0010B9C901087E
:1053200035CD010805CF010885C9010870B50D46C6
:1053300004461021284619F069FF206800780128EA
:1053400004D0022807D0042807D008E0A08A2880CB
:10535000E08A688003E0E06800E00A206860206876
:105360004268002A03D02946BDE87040104770BD4E
:105370002DE9FE430446808A10B9E08A002874D0E3
:10538000D4F82C805FEA080010D120460CF0F1FB25
:105390005FEA000869D020460FF0AEFB0022092129
:1053A000404616F0A1FC607880075ED44FF4807907
:1053B00000274E464546002128461CF0A3FB3844F2
:1053C00007B2002128461CF0BBFBC11700EB11609F
:1053D000001210FB06F006B228461BF08FFB0500FA
:1053E000E9D10FB94E450CD0784201B24FF480306C
:1053F00090FBF6F002B26B4604F1140000951EF02B
:10540000F1FAADF80450ADF8085094F8400000F0FF
:105410000F000328404616D01BF0C2FC064640464B
:105420001BF078FB03460C200090B4F916103246AE
:1054300040460AF017FFADF8080040461BF0BCFBE1
:10544000C10713D018E01BF03FFC064640461BF096
:10545000DBFB024603200090B4F9141033464046AB
:105460000AF000FFADF80400E7E736E0BDF90410EC
:10547000002901DDADF80450810705D4BDF9041001
:10548000002901DAADF80450410705D4BDF9081030
:10549000002901DDADF80850000705D4BDF908006A
:1054A000002801DAADF8085002AA01A9204623F02D
:1054B0002FFFBDF90820BDF90410404600F08AFA1C
:1054C0006078800709D4208BBDF80410084420833D
:1054D000608BBDF8081008446083BDE8FE832DE9A9
:1054E000FC5F0446C06A5FEA000B71D094F840008C
:1054F00000076DD018F04AF8019000684021457E01
:1055000058461CF049FC4FF0000818B9A4F81E805A
:10551000A4F81C8058461BF035FC824658461BF008
:1055200038FC064694F840004FF0640900F00F0084
:105530000C2802D003284CD09AE0A4F81C8056B165
:10554000B4F91E50002718F021F800684946407E43
:10555000C0F1640022E0E08BC5F1640110FB01F1B1
:1055600091FBF9F0E08358461BF0D4FA0546584603
:105570001BF016FC02460C200090B4F91E102B46BE
:1055800058460AF06FFEE083024600231EE07A19B7
:1055900017B210FB05F292FBF1F215B2002DF6D115
:1055A000ADF80070A4F81E806A460021204623F062
:1055B000AFFE41F6FF72BDF90030514258460CF083
:1055C0006FFCBDF800100123084402B200214CE03A
:1055D0009AE0A4F81E80BAF1000F0AD0B4F91C506A
:1055E000002717F0D3FF00684946407EC0F16400F1
:1055F00022E0A08BC5F1640110FB01F191FBF9F0F1
:10560000A08358461BF000FB054658461BF05CFB88
:10561000034603200090B4F91C102A4658460AF0AD
:1056200021FEA083014600231EE07A1917B210FB69
:1056300005F292FBF1F215B2002DF6D1ADF8007033
:10564000A4F81C8000226946204623F061FE41F642
:10565000FF72BDF90030514258460CF099FBBDF87D
:1056600000100123084401B2002258461DF0D0FC6E
:10567000A08B002848D1E08B002845D1C6B95846F8
:105680001BF08EFB054658461BF044FA002D06DC45
:1056900000280DDD002D02DA01232A4604E000284F
:1056A00006DA0123404202B2002158461DF0B0FC48
:1056B000BAF1000F19D158461BF0A6FA0546584614
:1056C0001BF002FB002D07DC00280EDD002D03DAA5
:1056D00001230022294605E0002806DA01230022E2
:1056E000404201B258461DF093FC0A215846019AE7
:1056F00016F0FAFA6078800706D414F8400F20F00C
:105700000F00207044F8148CBDE8FC9F7FB50E4656
:10571000040003D113F0F6F904002CD013F066FA5C
:10572000002828D094F82800400724D4002506B388
:10573000ADF80050ADF80250204613F0FBF9401EC2
:10574000ADF80400204613F03BFA401EADF8060009
:105750006A46314602A8FFF7A6F900280BD0206858
:10576000017C890708D5DDE90001C4E90C010120AD
:1057700029E0A4F850517FBD82690AB102A990477F
:1057800000260AE004EBC601002202A83031FFF730
:10579000B2F90028EFD1761CB6B2B4F85001B0428D
:1057A000F0D880B2202804D204EBC00002A9303027
:1057B00004E0A4F8505104F13000694610F0D1FE25
:1057C000B4F85001401CA4F8500160680028D2D001
:1057D00020F0E0FD7FBD70B5054600F012F80446EC
:1057E0000CE02146284600F01EF8064621462846D1
:1057F00000F0A2F8204619F0FBFB3446002CF0D153
:1058000070BD002800D04068704700B503460022F4
:10581000FFF7F7FF03E01846521C00F004F8010000
:10582000F9D1104600BD0068091D40587047006856
:1058300040587047002800D08068704700224260BE
:10584000C91C21F0030182600160704770B50446F5
:105850000068083019F040FB050013D00146002213
:10586000204621F033FE29462046626821F028FEBA
:10587000616819B12A46204621F028FE6560A068BB
:1058800000B9A560284670BD2DE9F0410C46060020
:105890000AD04CB1FFF7B5FFA04208D13046FFF760
:1058A000D5FF051E01D01EE00020BDE8F081306864
:1058B000083019F011FB051EF7D030682A46075949
:1058C0003046394621F0FCFD3A462946304621F063
:1058D000FDFD2A462146304621F0F8FD22462946A4
:1058E000304621F0EDFD2846DFE770B5044600683C
:1058F000083019F0F1FA050013D0014600222046C5
:1059000021F0DEFD29462046A26821F0DFFDA168D6
:1059100019B12A46204621F0D3FDA560606800B980
:105920006560284670BD28B1416809B9806808B132
:10593000002070470120704770B504000DD0FFF7BC
:1059400060FF00228842204608D1FFF76CFF6060AC
:10595000011E01D000221EE0A26070BDFFF76AFFA9
:105960008842206808440AD10168A16029B1204614
:10597000BDE87040002221F0A3BD626070BD0568E3
:105980002046FFF750FF064602462946204621F0F2
:1059900097FD2A4631462046BDE8704021F096BD6D
:1059A00010B50446006882680AB121469047206815
:1059B0000068002801D02060F5E710BD806800284D
:1059C00001D0B0F9160070478068002801D0807EB1
:1059D0008009704770B5164605460C4651EA060028
:1059E0001AD028461AF078F9A86801233246018AAD
:1059F00021440182A868418A3144418221462846D7
:105A00001CF05EFD00220B21284616F06DF90128DE
:105A100003D128461CF0AEFC012070BD77B581B0E3
:105A20000E46050017D062221BF09AFF040012D028
:105A3000206880B12846314663221BF091FF10F0A8
:105A4000FF0208D023682046039998470090BDF8CC
:105A50000000ADF80C00039804B070BD2DE9F047CC
:105A6000074692B0408C1A9E40F008007884904619
:105A70003A8499468A46328938461BF071FF0546BA
:105A8000A7F820903289514638461BF069FF04463A
:105A9000788CA54220F00800788403D12904B1EB6A
:105AA000044F68D0A7F820803289514638461BF051
:105AB00057FF05468046A7F82090514638460DF01E
:105AC000A3FF318900682A461FF07EFA30890B282F
:105AD00023D147F6FF794D4501D04C451DD13846BD
